:100000000C9446000C945D000C945D000C945D0013
:100010000C945D000C945D000C945D000C945D00EC
:100020000C945D000C945D000C945D000C945D00DC
:100030000C945D000C945D000C945D000C945D00CC
:100040000C945D000C945D000C945D000C945D00BC
:100050000C945D000C945D000C945D000C945D00AC
:100060000C945D000C945D000C945D000C945D009C
:100070000C945D000C945D000C945D000C945D008C
:100080000C945D000C945D000C945D0011241FBE67
:10009000CFEFD0E4DEBFCDBF11E0A0E0B1E0E2E2FF
:1000A000F2E000E00BBF02C007900D92AE30B10746
:1000B000D9F70E9499000C940F010C940000CF9383
:1000C000DF9300D01F92CDB7DEB789837B836A832D
:1000D00089818A3031F48A819B81BC018DE00E9444
:1000E0005F0080EC90E0FC018081882F90E08072BE
:1000F0009927892BB1F386EC90E02981FC012083BC
:1001000080E090E00F900F900F90DF91CF910895D5
:10011000CF93DF93CDB7DEB78AE790E02AE730E0F0
:10012000F9012081206EFC0120830000DF91CF9136
:100130000895CF93DF9300D01F92CDB7DEB781E251
:1001400090E0FC01108282E290E02FEFFC0120831E
:1001500084E290E02FEFFC01208385E290E0FC0137
:1001600010828AE290E02FEFFC0120838BE290E086
:10017000FC0110820E94880088E790E0FC018081E9
:1001800091819B838A8388E790E0FC018081918143
:100190009B838A838A819B818736910518F481E04D
:1001A000898337C08A819B818E3C910518F483E056
:1001B00089832FC08A819B818533914018F487E021
:1001C000898327C08A819B818C39914018F48FE004
:1001D00089831FC08A819B818330924018F48FE10C
:1001E000898317C08A819B818A36924018F48FE3F5
:1001F00089830FC08A819B81813D924018F48FE7EB
:10020000898307C08A819B818833934010F48FEFE4
:10021000898385E290E02981FC012083B4CFF894A2
:02022000FFCF0E
:0E02220000000002000000005F00000000006D
:00000001FF
